{"abi":[{"inputs":[],"name":"WONorNOT","outputs":[{"internalType":"bool","name":"","type":"bool"}],"stateMutability":"view","type":"function"},{"inputs":[],"name":"currentBet","outputs":[{"internalType":"uint256","name":"","type":"uint256"}],"stateMutability":"view","type":"function"},{"inputs":[],"name":"destiny","outputs":[{"internalType":"uint256","name":"","type":"uint256"}],"stateMutability":"view","type":"function"},{"inputs":[{"internalType":"uint8","name":"a","type":"uint8"}],"name":"getNewbet","outputs":[],"stateMutability":"nonpayable","type":"function"},{"inputs":[],"name":"isBetSet","outputs":[{"internalType":"bool","name":"","type":"bool"}],"stateMutability":"view","type":"function"},{"inputs":[],"name":"reset","outputs":[],"stateMutability":"nonpayable","type":"function"},{"inputs":[],"name":"roll","outputs":[],"stateMutability":"payable","type":"function"}],"devdoc":{"kind":"dev","methods":{},"version":1},"evm":{"assembly":"    /* \"DiceGame.sol\":62:1417  contract Dice{\r... */\n  mstore(0x40, 0x80)\n  callvalue\n  dup1\n  iszero\n  tag_1\n  jumpi\n  0x00\n  dup1\n  revert\ntag_1:\n  pop\n  dataSize(sub_0)\n  dup1\n  dataOffset(sub_0)\n  0x00\n  codecopy\n  0x00\n  return\nstop\n\nsub_0: assembly {\n        /* \"DiceGame.sol\":62:1417  contract Dice{\r... */\n      mstore(0x40, 0x80)\n      jumpi(tag_1, lt(calldatasize, 0x04))\n      shr(0xe0, calldataload(0x00))\n      dup1\n      0xcd5e3c5d\n      gt\n      tag_9\n      jumpi\n      dup1\n      0xcd5e3c5d\n      eq\n      tag_5\n      jumpi\n      dup1\n      0xd504cb65\n      eq\n      tag_6\n      jumpi\n      dup1\n      0xd826f88f\n      eq\n      tag_7\n      jumpi\n      dup1\n      0xeaf10d35\n      eq\n      tag_8\n      jumpi\n      jump(tag_1)\n    tag_9:\n      dup1\n      0x08878e37\n      eq\n      tag_2\n      jumpi\n      dup1\n      0x1ae651c8\n      eq\n      tag_3\n      jumpi\n      dup1\n      0x4dd8db5c\n      eq\n      tag_4\n      jumpi\n    tag_1:\n      0x00\n      dup1\n      revert\n        /* \"DiceGame.sol\":636:801  function getNewbet(uint8 a) public {\r... */\n    tag_2:\n      callvalue\n      dup1\n      iszero\n      tag_10\n      jumpi\n      0x00\n      dup1\n      revert\n    tag_10:\n      pop\n      tag_11\n      0x04\n      dup1\n      calldatasize\n      sub\n      dup2\n      add\n      swap1\n      tag_12\n      swap2\n      swap1\n      tag_13\n      jump\t// in\n    tag_12:\n      tag_14\n      jump\t// in\n    tag_11:\n      stop\n        /* \"DiceGame.sol\":269:356  function isBetSet() public view returns(bool){\r... */\n    tag_3:\n      callvalue\n      dup1\n      iszero\n      tag_15\n      jumpi\n      0x00\n      dup1\n      revert\n    tag_15:\n      pop\n      tag_16\n      tag_17\n      jump\t// in\n    tag_16:\n      mload(0x40)\n      tag_18\n      swap2\n      swap1\n      tag_19\n      jump\t// in\n    tag_18:\n      mload(0x40)\n      dup1\n      swap2\n      sub\n      swap1\n      return\n        /* \"DiceGame.sol\":544:633  function WONorNOT() public view returns(bool){\r... */\n    tag_4:\n      callvalue\n      dup1\n      iszero\n      tag_20\n      jumpi\n      0x00\n      dup1\n      revert\n    tag_20:\n      pop\n      tag_21\n      tag_22\n      jump\t// in\n    tag_21:\n      mload(0x40)\n      tag_23\n      swap2\n      swap1\n      tag_19\n      jump\t// in\n    tag_23:\n      mload(0x40)\n      dup1\n      swap2\n      sub\n      swap1\n      return\n        /* \"DiceGame.sol\":806:1306  function roll() public payable{\r... */\n    tag_5:\n      tag_24\n      tag_25\n      jump\t// in\n    tag_24:\n      stop\n        /* \"DiceGame.sol\":450:541  function currentBet() public view returns(uint){\r... */\n    tag_6:\n      callvalue\n      dup1\n      iszero\n      tag_26\n      jumpi\n      0x00\n      dup1\n      revert\n    tag_26:\n      pop\n      tag_27\n      tag_28\n      jump\t// in\n    tag_27:\n      mload(0x40)\n      tag_29\n      swap2\n      swap1\n      tag_30\n      jump\t// in\n    tag_29:\n      mload(0x40)\n      dup1\n      swap2\n      sub\n      swap1\n      return\n        /* \"DiceGame.sol\":1312:1412  function reset() public{\r... */\n    tag_7:\n      callvalue\n      dup1\n      iszero\n      tag_31\n      jumpi\n      0x00\n      dup1\n      revert\n    tag_31:\n      pop\n      tag_32\n      tag_33\n      jump\t// in\n    tag_32:\n      stop\n        /* \"DiceGame.sol\":362:447  function destiny() public view returns(uint){\r... */\n    tag_8:\n      callvalue\n      dup1\n      iszero\n      tag_34\n      jumpi\n      0x00\n      dup1\n      revert\n    tag_34:\n      pop\n      tag_35\n      tag_36\n      jump\t// in\n    tag_35:\n      mload(0x40)\n      tag_37\n      swap2\n      swap1\n      tag_30\n      jump\t// in\n    tag_37:\n      mload(0x40)\n      dup1\n      swap2\n      sub\n      swap1\n      return\n        /* \"DiceGame.sol\":636:801  function getNewbet(uint8 a) public {\r... */\n    tag_14:\n        /* \"DiceGame.sol\":713:718  false */\n      0x00\n        /* \"DiceGame.sol\":684:718  bets[msg.sender].isBetSet == false */\n      iszero\n      iszero\n        /* \"DiceGame.sol\":684:688  bets */\n      0x00\n        /* \"DiceGame.sol\":684:700  bets[msg.sender] */\n      dup1\n        /* \"DiceGame.sol\":689:699  msg.sender */\n      caller\n        /* \"DiceGame.sol\":684:700  bets[msg.sender] */\n      0xffffffffffffffffffffffffffffffffffffffff\n      and\n      0xffffffffffffffffffffffffffffffffffffffff\n      and\n      dup2\n      mstore\n      0x20\n      add\n      swap1\n      dup2\n      mstore\n      0x20\n      add\n      0x00\n      keccak256\n        /* \"DiceGame.sol\":684:709  bets[msg.sender].isBetSet */\n      0x00\n      add\n      0x01\n      swap1\n      sload\n      swap1\n      0x0100\n      exp\n      swap1\n      div\n      0xff\n      and\n        /* \"DiceGame.sol\":684:718  bets[msg.sender].isBetSet == false */\n      iszero\n      iszero\n      eq\n        /* \"DiceGame.sol\":676:719  require(bets[msg.sender].isBetSet == false) */\n      tag_39\n      jumpi\n      0x00\n      dup1\n      revert\n    tag_39:\n        /* \"DiceGame.sol\":752:756  true */\n      0x01\n        /* \"DiceGame.sol\":724:728  bets */\n      0x00\n        /* \"DiceGame.sol\":724:740  bets[msg.sender] */\n      dup1\n        /* \"DiceGame.sol\":729:739  msg.sender */\n      caller\n        /* \"DiceGame.sol\":724:740  bets[msg.sender] */\n      0xffffffffffffffffffffffffffffffffffffffff\n      and\n      0xffffffffffffffffffffffffffffffffffffffff\n      and\n      dup2\n      mstore\n      0x20\n      add\n      swap1\n      dup2\n      mstore\n      0x20\n      add\n      0x00\n      keccak256\n        /* \"DiceGame.sol\":724:749  bets[msg.sender].isBetSet */\n      0x00\n      add\n      0x01\n        /* \"DiceGame.sol\":724:756  bets[msg.sender].isBetSet = true */\n      0x0100\n      exp\n      dup2\n      sload\n      dup2\n      0xff\n      mul\n      not\n      and\n      swap1\n      dup4\n      iszero\n      iszero\n      mul\n      or\n      swap1\n      sstore\n      pop\n        /* \"DiceGame.sol\":791:792  a */\n      dup1\n        /* \"DiceGame.sol\":761:765  bets */\n      0x00\n        /* \"DiceGame.sol\":761:777  bets[msg.sender] */\n      dup1\n        /* \"DiceGame.sol\":766:776  msg.sender */\n      caller\n        /* \"DiceGame.sol\":761:777  bets[msg.sender] */\n      0xffffffffffffffffffffffffffffffffffffffff\n      and\n      0xffffffffffffffffffffffffffffffffffffffff\n      and\n      dup2\n      mstore\n      0x20\n      add\n      swap1\n      dup2\n      mstore\n      0x20\n      add\n      0x00\n      keccak256\n        /* \"DiceGame.sol\":761:788  bets[msg.sender].currentBet */\n      0x00\n      add\n      0x00\n        /* \"DiceGame.sol\":761:792  bets[msg.sender].currentBet = a */\n      0x0100\n      exp\n      dup2\n      sload\n      dup2\n      0xff\n      mul\n      not\n      and\n      swap1\n      dup4\n      0xff\n      and\n      mul\n      or\n      swap1\n      sstore\n      pop\n        /* \"DiceGame.sol\":636:801  function getNewbet(uint8 a) public {\r... */\n      pop\n      jump\t// out\n        /* \"DiceGame.sol\":269:356  function isBetSet() public view returns(bool){\r... */\n    tag_17:\n        /* \"DiceGame.sol\":309:313  bool */\n      0x00\n        /* \"DiceGame.sol\":326:330  bets */\n      dup1\n        /* \"DiceGame.sol\":326:342  bets[msg.sender] */\n      0x00\n        /* \"DiceGame.sol\":331:341  msg.sender */\n      caller\n        /* \"DiceGame.sol\":326:342  bets[msg.sender] */\n      0xffffffffffffffffffffffffffffffffffffffff\n      and\n      0xffffffffffffffffffffffffffffffffffffffff\n      and\n      dup2\n      mstore\n      0x20\n      add\n      swap1\n      dup2\n      mstore\n      0x20\n      add\n      0x00\n      keccak256\n        /* \"DiceGame.sol\":326:351  bets[msg.sender].isBetSet */\n      0x00\n      add\n      0x01\n      swap1\n      sload\n      swap1\n      0x0100\n      exp\n      swap1\n      div\n      0xff\n      and\n        /* \"DiceGame.sol\":319:351  return bets[msg.sender].isBetSet */\n      swap1\n      pop\n        /* \"DiceGame.sol\":269:356  function isBetSet() public view returns(bool){\r... */\n      swap1\n      jump\t// out\n        /* \"DiceGame.sol\":544:633  function WONorNOT() public view returns(bool){\r... */\n    tag_22:\n        /* \"DiceGame.sol\":584:588  bool */\n      0x00\n        /* \"DiceGame.sol\":601:605  bets */\n      dup1\n        /* \"DiceGame.sol\":601:617  bets[msg.sender] */\n      0x00\n        /* \"DiceGame.sol\":606:616  msg.sender */\n      caller\n        /* \"DiceGame.sol\":601:617  bets[msg.sender] */\n      0xffffffffffffffffffffffffffffffffffffffff\n      and\n      0xffffffffffffffffffffffffffffffffffffffff\n      and\n      dup2\n      mstore\n      0x20\n      add\n      swap1\n      dup2\n      mstore\n      0x20\n      add\n      0x00\n      keccak256\n        /* \"DiceGame.sol\":601:628  bets[msg.sender].matchFound */\n      0x02\n      add\n      0x00\n      swap1\n      sload\n      swap1\n      0x0100\n      exp\n      swap1\n      div\n      0xff\n      and\n        /* \"DiceGame.sol\":594:628  return bets[msg.sender].matchFound */\n      swap1\n      pop\n        /* \"DiceGame.sol\":544:633  function WONorNOT() public view returns(bool){\r... */\n      swap1\n      jump\t// out\n        /* \"DiceGame.sol\":806:1306  function roll() public payable{\r... */\n    tag_25:\n        /* \"DiceGame.sol\":841:845  bets */\n      0x00\n        /* \"DiceGame.sol\":841:857  bets[msg.sender] */\n      dup1\n        /* \"DiceGame.sol\":846:856  msg.sender */\n      caller\n        /* \"DiceGame.sol\":841:857  bets[msg.sender] */\n      0xffffffffffffffffffffffffffffffffffffffff\n      and\n      0xffffffffffffffffffffffffffffffffffffffff\n      and\n      dup2\n      mstore\n      0x20\n      add\n      swap1\n      dup2\n      mstore\n      0x20\n      add\n      0x00\n      keccak256\n        /* \"DiceGame.sol\":841:863  bets[msg.sender].count */\n      0x03\n      add\n      0x00\n        /* \"DiceGame.sol\":841:865  bets[msg.sender].count++ */\n      dup2\n      sload\n      dup1\n      swap3\n      swap2\n      swap1\n      tag_43\n      swap1\n      tag_44\n      jump\t// in\n    tag_43:\n      swap2\n      swap1\n      pop\n      sstore\n      pop\n        /* \"DiceGame.sol\":913:917  true */\n      0x01\n        /* \"DiceGame.sol\":884:917  bets[msg.sender].isBetSet == true */\n      iszero\n      iszero\n        /* \"DiceGame.sol\":884:888  bets */\n      0x00\n        /* \"DiceGame.sol\":884:900  bets[msg.sender] */\n      dup1\n        /* \"DiceGame.sol\":889:899  msg.sender */\n      caller\n        /* \"DiceGame.sol\":884:900  bets[msg.sender] */\n      0xffffffffffffffffffffffffffffffffffffffff\n      and\n      0xffffffffffffffffffffffffffffffffffffffff\n      and\n      dup2\n      mstore\n      0x20\n      add\n      swap1\n      dup2\n      mstore\n      0x20\n      add\n      0x00\n      keccak256\n        /* \"DiceGame.sol\":884:909  bets[msg.sender].isBetSet */\n      0x00\n      add\n      0x01\n      swap1\n      sload\n      swap1\n      0x0100\n      exp\n      swap1\n      div\n      0xff\n      and\n        /* \"DiceGame.sol\":884:917  bets[msg.sender].isBetSet == true */\n      iszero\n      iszero\n      eq\n        /* \"DiceGame.sol\":876:918  require(bets[msg.sender].isBetSet == true) */\n      tag_45\n      jumpi\n      0x00\n      dup1\n      revert\n    tag_45:\n        /* \"DiceGame.sol\":1059:1060  1 */\n      0x01\n        /* \"DiceGame.sol\":1054:1055  5 */\n      0x05\n        /* \"DiceGame.sol\":991:1007  block.difficulty */\n      difficulty\n        /* \"DiceGame.sol\":1009:1024  block.timestamp */\n      timestamp\n        /* \"DiceGame.sol\":1026:1030  bets */\n      0x00\n        /* \"DiceGame.sol\":1026:1042  bets[msg.sender] */\n      dup1\n        /* \"DiceGame.sol\":1031:1041  msg.sender */\n      caller\n        /* \"DiceGame.sol\":1026:1042  bets[msg.sender] */\n      0xffffffffffffffffffffffffffffffffffffffff\n      and\n      0xffffffffffffffffffffffffffffffffffffffff\n      and\n      dup2\n      mstore\n      0x20\n      add\n      swap1\n      dup2\n      mstore\n      0x20\n      add\n      0x00\n      keccak256\n        /* \"DiceGame.sol\":1026:1048  bets[msg.sender].count */\n      0x03\n      add\n      sload\n        /* \"DiceGame.sol\":974:1049  abi.encodePacked(block.difficulty, block.timestamp, bets[msg.sender].count) */\n      add(0x20, mload(0x40))\n      tag_46\n      swap4\n      swap3\n      swap2\n      swap1\n      tag_47\n      jump\t// in\n    tag_46:\n      mload(0x40)\n      0x20\n      dup2\n      dup4\n      sub\n      sub\n      dup2\n      mstore\n      swap1\n      0x40\n      mstore\n        /* \"DiceGame.sol\":964:1050  keccak256(abi.encodePacked(block.difficulty, block.timestamp, bets[msg.sender].count)) */\n      dup1\n      mload\n      swap1\n      0x20\n      add\n      keccak256\n        /* \"DiceGame.sol\":959:1051  uint(keccak256(abi.encodePacked(block.difficulty, block.timestamp, bets[msg.sender].count))) */\n      0x00\n      shr\n        /* \"DiceGame.sol\":959:1055  uint(keccak256(abi.encodePacked(block.difficulty, block.timestamp, bets[msg.sender].count))) % 5 */\n      tag_48\n      swap2\n      swap1\n      tag_49\n      jump\t// in\n    tag_48:\n        /* \"DiceGame.sol\":958:1060  (uint(keccak256(abi.encodePacked(block.difficulty, block.timestamp, bets[msg.sender].count))) % 5) + 1 */\n      tag_50\n      swap2\n      swap1\n      tag_51\n      jump\t// in\n    tag_50:\n        /* \"DiceGame.sol\":931:935  bets */\n      0x00\n        /* \"DiceGame.sol\":931:947  bets[msg.sender] */\n      dup1\n        /* \"DiceGame.sol\":936:946  msg.sender */\n      caller\n        /* \"DiceGame.sol\":931:947  bets[msg.sender] */\n      0xffffffffffffffffffffffffffffffffffffffff\n      and\n      0xffffffffffffffffffffffffffffffffffffffff\n      and\n      dup2\n      mstore\n      0x20\n      add\n      swap1\n      dup2\n      mstore\n      0x20\n      add\n      0x00\n      keccak256\n        /* \"DiceGame.sol\":931:955  bets[msg.sender].destiny */\n      0x01\n      add\n        /* \"DiceGame.sol\":931:1060  bets[msg.sender].destiny = (uint(keccak256(abi.encodePacked(block.difficulty, block.timestamp, bets[msg.sender].count))) % 5) + 1 */\n      dup2\n      swap1\n      sstore\n      pop\n        /* \"DiceGame.sol\":1102:1106  bets */\n      0x00\n        /* \"DiceGame.sol\":1102:1118  bets[msg.sender] */\n      dup1\n        /* \"DiceGame.sol\":1107:1117  msg.sender */\n      caller\n        /* \"DiceGame.sol\":1102:1118  bets[msg.sender] */\n      0xffffffffffffffffffffffffffffffffffffffff\n      and\n      0xffffffffffffffffffffffffffffffffffffffff\n      and\n      dup2\n      mstore\n      0x20\n      add\n      swap1\n      dup2\n      mstore\n      0x20\n      add\n      0x00\n      keccak256\n        /* \"DiceGame.sol\":1102:1129  bets[msg.sender].currentBet */\n      0x00\n      add\n      0x00\n      swap1\n      sload\n      swap1\n      0x0100\n      exp\n      swap1\n      div\n      0xff\n      and\n        /* \"DiceGame.sol\":1074:1129  bets[msg.sender].destiny == bets[msg.sender].currentBet */\n      0xff\n      and\n        /* \"DiceGame.sol\":1074:1078  bets */\n      0x00\n        /* \"DiceGame.sol\":1074:1090  bets[msg.sender] */\n      dup1\n        /* \"DiceGame.sol\":1079:1089  msg.sender */\n      caller\n        /* \"DiceGame.sol\":1074:1090  bets[msg.sender] */\n      0xffffffffffffffffffffffffffffffffffffffff\n      and\n      0xffffffffffffffffffffffffffffffffffffffff\n      and\n      dup2\n      mstore\n      0x20\n      add\n      swap1\n      dup2\n      mstore\n      0x20\n      add\n      0x00\n      keccak256\n        /* \"DiceGame.sol\":1074:1098  bets[msg.sender].destiny */\n      0x01\n      add\n      sload\n        /* \"DiceGame.sol\":1074:1129  bets[msg.sender].destiny == bets[msg.sender].currentBet */\n      eq\n        /* \"DiceGame.sol\":1071:1221  if(bets[msg.sender].destiny == bets[msg.sender].currentBet){\r... */\n      iszero\n      tag_52\n      jumpi\n        /* \"DiceGame.sol\":1211:1215  true */\n      0x01\n        /* \"DiceGame.sol\":1181:1185  bets */\n      0x00\n        /* \"DiceGame.sol\":1181:1197  bets[msg.sender] */\n      dup1\n        /* \"DiceGame.sol\":1186:1196  msg.sender */\n      caller\n        /* \"DiceGame.sol\":1181:1197  bets[msg.sender] */\n      0xffffffffffffffffffffffffffffffffffffffff\n      and\n      0xffffffffffffffffffffffffffffffffffffffff\n      and\n      dup2\n      mstore\n      0x20\n      add\n      swap1\n      dup2\n      mstore\n      0x20\n      add\n      0x00\n      keccak256\n        /* \"DiceGame.sol\":1181:1208  bets[msg.sender].matchFound */\n      0x02\n      add\n      0x00\n        /* \"DiceGame.sol\":1181:1215  bets[msg.sender].matchFound = true */\n      0x0100\n      exp\n      dup2\n      sload\n      dup2\n      0xff\n      mul\n      not\n      and\n      swap1\n      dup4\n      iszero\n      iszero\n      mul\n      or\n      swap1\n      sstore\n      pop\n        /* \"DiceGame.sol\":1071:1221  if(bets[msg.sender].destiny == bets[msg.sender].currentBet){\r... */\n    tag_52:\n        /* \"DiceGame.sol\":1254:1255  3 */\n      0x03\n        /* \"DiceGame.sol\":1228:1232  bets */\n      0x00\n        /* \"DiceGame.sol\":1228:1244  bets[msg.sender] */\n      dup1\n        /* \"DiceGame.sol\":1233:1243  msg.sender */\n      caller\n        /* \"DiceGame.sol\":1228:1244  bets[msg.sender] */\n      0xffffffffffffffffffffffffffffffffffffffff\n      and\n      0xffffffffffffffffffffffffffffffffffffffff\n      and\n      dup2\n      mstore\n      0x20\n      add\n      swap1\n      dup2\n      mstore\n      0x20\n      add\n      0x00\n      keccak256\n        /* \"DiceGame.sol\":1228:1250  bets[msg.sender].count */\n      0x03\n      add\n      sload\n        /* \"DiceGame.sol\":1228:1255  bets[msg.sender].count == 3 */\n      eq\n        /* \"DiceGame.sol\":1225:1297  if(bets[msg.sender].count == 3)\r... */\n      iszero\n      tag_53\n      jumpi\n        /* \"DiceGame.sol\":1292:1297  false */\n      0x00\n        /* \"DiceGame.sol\":1264:1268  bets */\n      dup1\n        /* \"DiceGame.sol\":1264:1280  bets[msg.sender] */\n      0x00\n        /* \"DiceGame.sol\":1269:1279  msg.sender */\n      caller\n        /* \"DiceGame.sol\":1264:1280  bets[msg.sender] */\n      0xffffffffffffffffffffffffffffffffffffffff\n      and\n      0xffffffffffffffffffffffffffffffffffffffff\n      and\n      dup2\n      mstore\n      0x20\n      add\n      swap1\n      dup2\n      mstore\n      0x20\n      add\n      0x00\n      keccak256\n        /* \"DiceGame.sol\":1264:1289  bets[msg.sender].isBetSet */\n      0x00\n      add\n      0x01\n        /* \"DiceGame.sol\":1264:1297  bets[msg.sender].isBetSet = false */\n      0x0100\n      exp\n      dup2\n      sload\n      dup2\n      0xff\n      mul\n      not\n      and\n      swap1\n      dup4\n      iszero\n      iszero\n      mul\n      or\n      swap1\n      sstore\n      pop\n        /* \"DiceGame.sol\":1225:1297  if(bets[msg.sender].count == 3)\r... */\n    tag_53:\n        /* \"DiceGame.sol\":806:1306  function roll() public payable{\r... */\n      jump\t// out\n        /* \"DiceGame.sol\":450:541  function currentBet() public view returns(uint){\r... */\n    tag_28:\n        /* \"DiceGame.sol\":492:496  uint */\n      0x00\n        /* \"DiceGame.sol\":509:513  bets */\n      dup1\n        /* \"DiceGame.sol\":509:525  bets[msg.sender] */\n      0x00\n        /* \"DiceGame.sol\":514:524  msg.sender */\n      caller\n        /* \"DiceGame.sol\":509:525  bets[msg.sender] */\n      0xffffffffffffffffffffffffffffffffffffffff\n      and\n      0xffffffffffffffffffffffffffffffffffffffff\n      and\n      dup2\n      mstore\n      0x20\n      add\n      swap1\n      dup2\n      mstore\n      0x20\n      add\n      0x00\n      keccak256\n        /* \"DiceGame.sol\":509:536  bets[msg.sender].currentBet */\n      0x00\n      add\n      0x00\n      swap1\n      sload\n      swap1\n      0x0100\n      exp\n      swap1\n      div\n      0xff\n      and\n        /* \"DiceGame.sol\":502:536  return bets[msg.sender].currentBet */\n      0xff\n      and\n      swap1\n      pop\n        /* \"DiceGame.sol\":450:541  function currentBet() public view returns(uint){\r... */\n      swap1\n      jump\t// out\n        /* \"DiceGame.sol\":1312:1412  function reset() public{\r... */\n    tag_33:\n        /* \"DiceGame.sol\":1368:1369  0 */\n      0x00\n        /* \"DiceGame.sol\":1343:1347  bets */\n      dup1\n        /* \"DiceGame.sol\":1343:1359  bets[msg.sender] */\n      0x00\n        /* \"DiceGame.sol\":1348:1358  msg.sender */\n      caller\n        /* \"DiceGame.sol\":1343:1359  bets[msg.sender] */\n      0xffffffffffffffffffffffffffffffffffffffff\n      and\n      0xffffffffffffffffffffffffffffffffffffffff\n      and\n      dup2\n      mstore\n      0x20\n      add\n      swap1\n      dup2\n      mstore\n      0x20\n      add\n      0x00\n      keccak256\n        /* \"DiceGame.sol\":1343:1365  bets[msg.sender].count */\n      0x03\n      add\n        /* \"DiceGame.sol\":1343:1369  bets[msg.sender].count = 0 */\n      dup2\n      swap1\n      sstore\n      pop\n        /* \"DiceGame.sol\":1402:1407  false */\n      0x00\n        /* \"DiceGame.sol\":1374:1378  bets */\n      dup1\n        /* \"DiceGame.sol\":1374:1390  bets[msg.sender] */\n      0x00\n        /* \"DiceGame.sol\":1379:1389  msg.sender */\n      caller\n        /* \"DiceGame.sol\":1374:1390  bets[msg.sender] */\n      0xffffffffffffffffffffffffffffffffffffffff\n      and\n      0xffffffffffffffffffffffffffffffffffffffff\n      and\n      dup2\n      mstore\n      0x20\n      add\n      swap1\n      dup2\n      mstore\n      0x20\n      add\n      0x00\n      keccak256\n        /* \"DiceGame.sol\":1374:1399  bets[msg.sender].isBetSet */\n      0x00\n      add\n      0x01\n        /* \"DiceGame.sol\":1374:1407  bets[msg.sender].isBetSet = false */\n      0x0100\n      exp\n      dup2\n      sload\n      dup2\n      0xff\n      mul\n      not\n      and\n      swap1\n      dup4\n      iszero\n      iszero\n      mul\n      or\n      swap1\n      sstore\n      pop\n        /* \"DiceGame.sol\":1312:1412  function reset() public{\r... */\n      jump\t// out\n        /* \"DiceGame.sol\":362:447  function destiny() public view returns(uint){\r... */\n    tag_36:\n        /* \"DiceGame.sol\":401:405  uint */\n      0x00\n        /* \"DiceGame.sol\":418:422  bets */\n      dup1\n        /* \"DiceGame.sol\":418:434  bets[msg.sender] */\n      0x00\n        /* \"DiceGame.sol\":423:433  msg.sender */\n      caller\n        /* \"DiceGame.sol\":418:434  bets[msg.sender] */\n      0xffffffffffffffffffffffffffffffffffffffff\n      and\n      0xffffffffffffffffffffffffffffffffffffffff\n      and\n      dup2\n      mstore\n      0x20\n      add\n      swap1\n      dup2\n      mstore\n      0x20\n      add\n      0x00\n      keccak256\n        /* \"DiceGame.sol\":418:442  bets[msg.sender].destiny */\n      0x01\n      add\n      sload\n        /* \"DiceGame.sol\":411:442  return bets[msg.sender].destiny */\n      swap1\n      pop\n        /* \"DiceGame.sol\":362:447  function destiny() public view returns(uint){\r... */\n      swap1\n      jump\t// out\n        /* \"#utility.yul\":7:142   */\n    tag_58:\n        /* \"#utility.yul\":51:56   */\n      0x00\n        /* \"#utility.yul\":89:95   */\n      dup2\n        /* \"#utility.yul\":76:96   */\n      calldataload\n        /* \"#utility.yul\":67:96   */\n      swap1\n      pop\n        /* \"#utility.yul\":105:136   */\n      tag_60\n        /* \"#utility.yul\":130:135   */\n      dup2\n        /* \"#utility.yul\":105:136   */\n      tag_61\n      jump\t// in\n    tag_60:\n        /* \"#utility.yul\":7:142   */\n      swap3\n      swap2\n      pop\n      pop\n      jump\t// out\n        /* \"#utility.yul\":148:473   */\n    tag_13:\n        /* \"#utility.yul\":205:211   */\n      0x00\n        /* \"#utility.yul\":254:256   */\n      0x20\n        /* \"#utility.yul\":242:251   */\n      dup3\n        /* \"#utility.yul\":233:240   */\n      dup5\n        /* \"#utility.yul\":229:252   */\n      sub\n        /* \"#utility.yul\":225:257   */\n      slt\n        /* \"#utility.yul\":222:341   */\n      iszero\n      tag_63\n      jumpi\n        /* \"#utility.yul\":260:339   */\n      tag_64\n      tag_65\n      jump\t// in\n    tag_64:\n        /* \"#utility.yul\":222:341   */\n    tag_63:\n        /* \"#utility.yul\":380:381   */\n      0x00\n        /* \"#utility.yul\":405:456   */\n      tag_66\n        /* \"#utility.yul\":448:455   */\n      dup5\n        /* \"#utility.yul\":439:445   */\n      dup3\n        /* \"#utility.yul\":428:437   */\n      dup6\n        /* \"#utility.yul\":424:446   */\n      add\n        /* \"#utility.yul\":405:456   */\n      tag_58\n      jump\t// in\n    tag_66:\n        /* \"#utility.yul\":395:456   */\n      swap2\n      pop\n        /* \"#utility.yul\":351:466   */\n      pop\n        /* \"#utility.yul\":148:473   */\n      swap3\n      swap2\n      pop\n      pop\n      jump\t// out\n        /* \"#utility.yul\":479:588   */\n    tag_67:\n        /* \"#utility.yul\":560:581   */\n      tag_69\n        /* \"#utility.yul\":575:580   */\n      dup2\n        /* \"#utility.yul\":560:581   */\n      tag_70\n      jump\t// in\n    tag_69:\n        /* \"#utility.yul\":555:558   */\n      dup3\n        /* \"#utility.yul\":548:582   */\n      mstore\n        /* \"#utility.yul\":479:588   */\n      pop\n      pop\n      jump\t// out\n        /* \"#utility.yul\":594:712   */\n    tag_71:\n        /* \"#utility.yul\":681:705   */\n      tag_73\n        /* \"#utility.yul\":699:704   */\n      dup2\n        /* \"#utility.yul\":681:705   */\n      tag_74\n      jump\t// in\n    tag_73:\n        /* \"#utility.yul\":676:679   */\n      dup3\n        /* \"#utility.yul\":669:706   */\n      mstore\n        /* \"#utility.yul\":594:712   */\n      pop\n      pop\n      jump\t// out\n        /* \"#utility.yul\":718:875   */\n    tag_75:\n        /* \"#utility.yul\":823:868   */\n      tag_77\n        /* \"#utility.yul\":843:867   */\n      tag_78\n        /* \"#utility.yul\":861:866   */\n      dup3\n        /* \"#utility.yul\":843:867   */\n      tag_74\n      jump\t// in\n    tag_78:\n        /* \"#utility.yul\":823:868   */\n      tag_79\n      jump\t// in\n    tag_77:\n        /* \"#utility.yul\":818:821   */\n      dup3\n        /* \"#utility.yul\":811:869   */\n      mstore\n        /* \"#utility.yul\":718:875   */\n      pop\n      pop\n      jump\t// out\n        /* \"#utility.yul\":881:1419   */\n    tag_47:\n        /* \"#utility.yul\":1049:1052   */\n      0x00\n        /* \"#utility.yul\":1064:1139   */\n      tag_81\n        /* \"#utility.yul\":1135:1138   */\n      dup3\n        /* \"#utility.yul\":1126:1132   */\n      dup7\n        /* \"#utility.yul\":1064:1139   */\n      tag_75\n      jump\t// in\n    tag_81:\n        /* \"#utility.yul\":1164:1166   */\n      0x20\n        /* \"#utility.yul\":1159:1162   */\n      dup3\n        /* \"#utility.yul\":1155:1167   */\n      add\n        /* \"#utility.yul\":1148:1167   */\n      swap2\n      pop\n        /* \"#utility.yul\":1177:1252   */\n      tag_82\n        /* \"#utility.yul\":1248:1251   */\n      dup3\n        /* \"#utility.yul\":1239:1245   */\n      dup6\n        /* \"#utility.yul\":1177:1252   */\n      tag_75\n      jump\t// in\n    tag_82:\n        /* \"#utility.yul\":1277:1279   */\n      0x20\n        /* \"#utility.yul\":1272:1275   */\n      dup3\n        /* \"#utility.yul\":1268:1280   */\n      add\n        /* \"#utility.yul\":1261:1280   */\n      swap2\n      pop\n        /* \"#utility.yul\":1290:1365   */\n      tag_83\n        /* \"#utility.yul\":1361:1364   */\n      dup3\n        /* \"#utility.yul\":1352:1358   */\n      dup5\n        /* \"#utility.yul\":1290:1365   */\n      tag_75\n      jump\t// in\n    tag_83:\n        /* \"#utility.yul\":1390:1392   */\n      0x20\n        /* \"#utility.yul\":1385:1388   */\n      dup3\n        /* \"#utility.yul\":1381:1393   */\n      add\n        /* \"#utility.yul\":1374:1393   */\n      swap2\n      pop\n        /* \"#utility.yul\":1410:1413   */\n      dup2\n        /* \"#utility.yul\":1403:1413   */\n      swap1\n      pop\n        /* \"#utility.yul\":881:1419   */\n      swap5\n      swap4\n      pop\n      pop\n      pop\n      pop\n      jump\t// out\n        /* \"#utility.yul\":1425:1635   */\n    tag_19:\n        /* \"#utility.yul\":1512:1516   */\n      0x00\n        /* \"#utility.yul\":1550:1552   */\n      0x20\n        /* \"#utility.yul\":1539:1548   */\n      dup3\n        /* \"#utility.yul\":1535:1553   */\n      add\n        /* \"#utility.yul\":1527:1553   */\n      swap1\n      pop\n        /* \"#utility.yul\":1563:1628   */\n      tag_85\n        /* \"#utility.yul\":1625:1626   */\n      0x00\n        /* \"#utility.yul\":1614:1623   */\n      dup4\n        /* \"#utility.yul\":1610:1627   */\n      add\n        /* \"#utility.yul\":1601:1607   */\n      dup5\n        /* \"#utility.yul\":1563:1628   */\n      tag_67\n      jump\t// in\n    tag_85:\n        /* \"#utility.yul\":1425:1635   */\n      swap3\n      swap2\n      pop\n      pop\n      jump\t// out\n        /* \"#utility.yul\":1641:1863   */\n    tag_30:\n        /* \"#utility.yul\":1734:1738   */\n      0x00\n        /* \"#utility.yul\":1772:1774   */\n      0x20\n        /* \"#utility.yul\":1761:1770   */\n      dup3\n        /* \"#utility.yul\":1757:1775   */\n      add\n        /* \"#utility.yul\":1749:1775   */\n      swap1\n      pop\n        /* \"#utility.yul\":1785:1856   */\n      tag_87\n        /* \"#utility.yul\":1853:1854   */\n      0x00\n        /* \"#utility.yul\":1842:1851   */\n      dup4\n        /* \"#utility.yul\":1838:1855   */\n      add\n        /* \"#utility.yul\":1829:1835   */\n      dup5\n        /* \"#utility.yul\":1785:1856   */\n      tag_71\n      jump\t// in\n    tag_87:\n        /* \"#utility.yul\":1641:1863   */\n      swap3\n      swap2\n      pop\n      pop\n      jump\t// out\n        /* \"#utility.yul\":1950:2255   */\n    tag_51:\n        /* \"#utility.yul\":1990:1993   */\n      0x00\n        /* \"#utility.yul\":2009:2029   */\n      tag_91\n        /* \"#utility.yul\":2027:2028   */\n      dup3\n        /* \"#utility.yul\":2009:2029   */\n      tag_74\n      jump\t// in\n    tag_91:\n        /* \"#utility.yul\":2004:2029   */\n      swap2\n      pop\n        /* \"#utility.yul\":2043:2063   */\n      tag_92\n        /* \"#utility.yul\":2061:2062   */\n      dup4\n        /* \"#utility.yul\":2043:2063   */\n      tag_74\n      jump\t// in\n    tag_92:\n        /* \"#utility.yul\":2038:2063   */\n      swap3\n      pop\n        /* \"#utility.yul\":2197:2198   */\n      dup3\n        /* \"#utility.yul\":2129:2195   */\n      0xffffffffffffffffffffffffffffffffffffffffffffffffffffffffffffffff\n        /* \"#utility.yul\":2125:2199   */\n      sub\n        /* \"#utility.yul\":2122:2123   */\n      dup3\n        /* \"#utility.yul\":2119:2200   */\n      gt\n        /* \"#utility.yul\":2116:2223   */\n      iszero\n      tag_93\n      jumpi\n        /* \"#utility.yul\":2203:2221   */\n      tag_94\n      tag_95\n      jump\t// in\n    tag_94:\n        /* \"#utility.yul\":2116:2223   */\n    tag_93:\n        /* \"#utility.yul\":2247:2248   */\n      dup3\n        /* \"#utility.yul\":2244:2245   */\n      dup3\n        /* \"#utility.yul\":2240:2249   */\n      add\n        /* \"#utility.yul\":2233:2249   */\n      swap1\n      pop\n        /* \"#utility.yul\":1950:2255   */\n      swap3\n      swap2\n      pop\n      pop\n      jump\t// out\n        /* \"#utility.yul\":2261:2351   */\n    tag_70:\n        /* \"#utility.yul\":2295:2302   */\n      0x00\n        /* \"#utility.yul\":2338:2343   */\n      dup2\n        /* \"#utility.yul\":2331:2344   */\n      iszero\n        /* \"#utility.yul\":2324:2345   */\n      iszero\n        /* \"#utility.yul\":2313:2345   */\n      swap1\n      pop\n        /* \"#utility.yul\":2261:2351   */\n      swap2\n      swap1\n      pop\n      jump\t// out\n        /* \"#utility.yul\":2357:2434   */\n    tag_74:\n        /* \"#utility.yul\":2394:2401   */\n      0x00\n        /* \"#utility.yul\":2423:2428   */\n      dup2\n        /* \"#utility.yul\":2412:2428   */\n      swap1\n      pop\n        /* \"#utility.yul\":2357:2434   */\n      swap2\n      swap1\n      pop\n      jump\t// out\n        /* \"#utility.yul\":2440:2526   */\n    tag_98:\n        /* \"#utility.yul\":2475:2482   */\n      0x00\n        /* \"#utility.yul\":2515:2519   */\n      0xff\n        /* \"#utility.yul\":2508:2513   */\n      dup3\n        /* \"#utility.yul\":2504:2520   */\n      and\n        /* \"#utility.yul\":2493:2520   */\n      swap1\n      pop\n        /* \"#utility.yul\":2440:2526   */\n      swap2\n      swap1\n      pop\n      jump\t// out\n        /* \"#utility.yul\":2532:2765   */\n    tag_44:\n        /* \"#utility.yul\":2571:2574   */\n      0x00\n        /* \"#utility.yul\":2594:2618   */\n      tag_101\n        /* \"#utility.yul\":2612:2617   */\n      dup3\n        /* \"#utility.yul\":2594:2618   */\n      tag_74\n      jump\t// in\n    tag_101:\n        /* \"#utility.yul\":2585:2618   */\n      swap2\n      pop\n        /* \"#utility.yul\":2640:2706   */\n      0xffffffffffffffffffffffffffffffffffffffffffffffffffffffffffffffff\n        /* \"#utility.yul\":2633:2638   */\n      dup3\n        /* \"#utility.yul\":2630:2707   */\n      eq\n        /* \"#utility.yul\":2627:2730   */\n      iszero\n      tag_102\n      jumpi\n        /* \"#utility.yul\":2710:2728   */\n      tag_103\n      tag_95\n      jump\t// in\n    tag_103:\n        /* \"#utility.yul\":2627:2730   */\n    tag_102:\n        /* \"#utility.yul\":2757:2758   */\n      0x01\n        /* \"#utility.yul\":2750:2755   */\n      dup3\n        /* \"#utility.yul\":2746:2759   */\n      add\n        /* \"#utility.yul\":2739:2759   */\n      swap1\n      pop\n        /* \"#utility.yul\":2532:2765   */\n      swap2\n      swap1\n      pop\n      jump\t// out\n        /* \"#utility.yul\":2771:2850   */\n    tag_79:\n        /* \"#utility.yul\":2810:2817   */\n      0x00\n        /* \"#utility.yul\":2839:2844   */\n      dup2\n        /* \"#utility.yul\":2828:2844   */\n      swap1\n      pop\n        /* \"#utility.yul\":2771:2850   */\n      swap2\n      swap1\n      pop\n      jump\t// out\n        /* \"#utility.yul\":2856:3032   */\n    tag_49:\n        /* \"#utility.yul\":2888:2889   */\n      0x00\n        /* \"#utility.yul\":2905:2925   */\n      tag_106\n        /* \"#utility.yul\":2923:2924   */\n      dup3\n        /* \"#utility.yul\":2905:2925   */\n      tag_74\n      jump\t// in\n    tag_106:\n        /* \"#utility.yul\":2900:2925   */\n      swap2\n      pop\n        /* \"#utility.yul\":2939:2959   */\n      tag_107\n        /* \"#utility.yul\":2957:2958   */\n      dup4\n        /* \"#utility.yul\":2939:2959   */\n      tag_74\n      jump\t// in\n    tag_107:\n        /* \"#utility.yul\":2934:2959   */\n      swap3\n      pop\n        /* \"#utility.yul\":2978:2979   */\n      dup3\n        /* \"#utility.yul\":2968:3003   */\n      tag_108\n      jumpi\n        /* \"#utility.yul\":2983:3001   */\n      tag_109\n      tag_110\n      jump\t// in\n    tag_109:\n        /* \"#utility.yul\":2968:3003   */\n    tag_108:\n        /* \"#utility.yul\":3024:3025   */\n      dup3\n        /* \"#utility.yul\":3021:3022   */\n      dup3\n        /* \"#utility.yul\":3017:3026   */\n      mod\n        /* \"#utility.yul\":3012:3026   */\n      swap1\n      pop\n        /* \"#utility.yul\":2856:3032   */\n      swap3\n      swap2\n      pop\n      pop\n      jump\t// out\n        /* \"#utility.yul\":3038:3218   */\n    tag_95:\n        /* \"#utility.yul\":3086:3163   */\n      0x4e487b7100000000000000000000000000000000000000000000000000000000\n        /* \"#utility.yul\":3083:3084   */\n      0x00\n        /* \"#utility.yul\":3076:3164   */\n      mstore\n        /* \"#utility.yul\":3183:3187   */\n      0x11\n        /* \"#utility.yul\":3180:3181   */\n      0x04\n        /* \"#utility.yul\":3173:3188   */\n      mstore\n        /* \"#utility.yul\":3207:3211   */\n      0x24\n        /* \"#utility.yul\":3204:3205   */\n      0x00\n        /* \"#utility.yul\":3197:3212   */\n      revert\n        /* \"#utility.yul\":3224:3404   */\n    tag_110:\n        /* \"#utility.yul\":3272:3349   */\n      0x4e487b7100000000000000000000000000000000000000000000000000000000\n        /* \"#utility.yul\":3269:3270   */\n      0x00\n        /* \"#utility.yul\":3262:3350   */\n      mstore\n        /* \"#utility.yul\":3369:3373   */\n      0x12\n        /* \"#utility.yul\":3366:3367   */\n      0x04\n        /* \"#utility.yul\":3359:3374   */\n      mstore\n        /* \"#utility.yul\":3393:3397   */\n      0x24\n        /* \"#utility.yul\":3390:3391   */\n      0x00\n        /* \"#utility.yul\":3383:3398   */\n      revert\n        /* \"#utility.yul\":3533:3650   */\n    tag_65:\n        /* \"#utility.yul\":3642:3643   */\n      0x00\n        /* \"#utility.yul\":3639:3640   */\n      dup1\n        /* \"#utility.yul\":3632:3644   */\n      revert\n        /* \"#utility.yul\":3656:3774   */\n    tag_61:\n        /* \"#utility.yul\":3727:3749   */\n      tag_117\n        /* \"#utility.yul\":3743:3748   */\n      dup2\n        /* \"#utility.yul\":3727:3749   */\n      tag_98\n      jump\t// in\n    tag_117:\n        /* \"#utility.yul\":3720:3725   */\n      dup2\n        /* \"#utility.yul\":3717:3750   */\n      eq\n        /* \"#utility.yul\":3707:3768   */\n      tag_118\n      jumpi\n        /* \"#utility.yul\":3764:3765   */\n      0x00\n        /* \"#utility.yul\":3761:3762   */\n      dup1\n        /* \"#utility.yul\":3754:3766   */\n      revert\n        /* \"#utility.yul\":3707:3768   */\n    tag_118:\n        /* \"#utility.yul\":3656:3774   */\n      pop\n      jump\t// out\n\n    auxdata: 0xa264697066735822122085f7bfff8b3771834c9ab25c8a019fdd85680259ffc211a4a879e0ef44489c4564736f6c63430008070033\n}\n","bytecode":{"linkReferences":{},"object":"608060405234801561001057600080fd5b50610a27806100206000396000f3fe6080604052600436106100705760003560e01c8063cd5e3c5d1161004e578063cd5e3c5d146100f4578063d504cb65146100fe578063d826f88f14610129578063eaf10d351461014057610070565b806308878e37146100755780631ae651c81461009e5780634dd8db5c146100c9575b600080fd5b34801561008157600080fd5b5061009c600480360381019061009791906107a5565b61016b565b005b3480156100aa57600080fd5b506100b3610281565b6040516100c09190610844565b60405180910390f35b3480156100d557600080fd5b506100de6102d7565b6040516100eb9190610844565b60405180910390f35b6100fc61032d565b005b34801561010a57600080fd5b5061011361064b565b604051610120919061085f565b60405180910390f35b34801561013557600080fd5b5061013e6106a4565b005b34801561014c57600080fd5b50610155610747565b604051610162919061085f565b60405180910390f35b600015156000803373ffffffffffffffffffffffffffffffffffffffff1673ffffffffffffffffffffffffffffffffffffffff16815260200190815260200160002060000160019054906101000a900460ff161515146101ca57600080fd5b60016000803373ffffffffffffffffffffffffffffffffffffffff1673ffffffffffffffffffffffffffffffffffffffff16815260200190815260200160002060000160016101000a81548160ff021916908315150217905550806000803373ffffffffffffffffffffffffffffffffffffffff1673ffffffffffffffffffffffffffffffffffffffff16815260200190815260200160002060000160006101000a81548160ff021916908360ff16021790555050565b60008060003373ffffffffffffffffffffffffffffffffffffffff1673ffffffffffffffffffffffffffffffffffffffff16815260200190815260200160002060000160019054906101000a900460ff16905090565b60008060003373ffffffffffffffffffffffffffffffffffffffff1673ffffffffffffffffffffffffffffffffffffffff16815260200190815260200160002060020160009054906101000a900460ff16905090565b6000803373ffffffffffffffffffffffffffffffffffffffff1673ffffffffffffffffffffffffffffffffffffffff168152602001908152602001600020600301600081548092919061037f906108f3565b9190505550600115156000803373ffffffffffffffffffffffffffffffffffffffff1673ffffffffffffffffffffffffffffffffffffffff16815260200190815260200160002060000160019054906101000a900460ff161515146103e357600080fd5b6001600544426000803373ffffffffffffffffffffffffffffffffffffffff1673ffffffffffffffffffffffffffffffffffffffff1681526020019081526020016000206003015460405160200161043d93929190610807565b6040516020818303038152906040528051906020012060001c6104609190610946565b61046a919061087a565b6000803373ffffffffffffffffffffffffffffffffffffffff1673ffffffffffffffffffffffffffffffffffffffff168152602001908152602001600020600101819055506000803373ffffffffffffffffffffffffffffffffffffffff1673ffffffffffffffffffffffffffffffffffffffff16815260200190815260200160002060000160009054906101000a900460ff1660ff166000803373ffffffffffffffffffffffffffffffffffffffff1673ffffffffffffffffffffffffffffffffffffffff1681526020019081526020016000206001015414156105a45760016000803373ffffffffffffffffffffffffffffffffffffffff1673ffffffffffffffffffffffffffffffffffffffff16815260200190815260200160002060020160006101000a81548160ff0219169083151502179055505b60036000803373ffffffffffffffffffffffffffffffffffffffff1673ffffffffffffffffffffffffffffffffffffffff1681526020019081526020016000206003015414156106495760008060003373ffffffffffffffffffffffffffffffffffffffff1673ffffffffffffffffffffffffffffffffffffffff16815260200190815260200160002060000160016101000a81548160ff0219169083151502179055505b565b60008060003373ffffffffffffffffffffffffffffffffffffffff1673ffffffffffffffffffffffffffffffffffffffff16815260200190815260200160002060000160009054906101000a900460ff1660ff16905090565b60008060003373ffffffffffffffffffffffffffffffffffffffff1673ffffffffffffffffffffffffffffffffffffffff1681526020019081526020016000206003018190555060008060003373ffffffffffffffffffffffffffffffffffffffff1673ffffffffffffffffffffffffffffffffffffffff16815260200190815260200160002060000160016101000a81548160ff021916908315150217905550565b60008060003373ffffffffffffffffffffffffffffffffffffffff1673ffffffffffffffffffffffffffffffffffffffff16815260200190815260200160002060010154905090565b60008135905061079f816109da565b92915050565b6000602082840312156107bb576107ba6109d5565b5b60006107c984828501610790565b91505092915050565b6107db816108d0565b82525050565b6107ea816108dc565b82525050565b6108016107fc826108dc565b61093c565b82525050565b600061081382866107f0565b60208201915061082382856107f0565b60208201915061083382846107f0565b602082019150819050949350505050565b600060208201905061085960008301846107d2565b92915050565b600060208201905061087460008301846107e1565b92915050565b6000610885826108dc565b9150610890836108dc565b9250827fffffffffffffffffffffffffffffffffffffffffffffffffffffffffffffffff038211156108c5576108c4610977565b5b828201905092915050565b60008115159050919050565b6000819050919050565b600060ff82169050919050565b60006108fe826108dc565b91507fffffffffffffffffffffffffffffffffffffffffffffffffffffffffffffffff82141561093157610930610977565b5b600182019050919050565b6000819050919050565b6000610951826108dc565b915061095c836108dc565b92508261096c5761096b6109a6565b5b828206905092915050565b7f4e487b7100000000000000000000000000000000000000000000000000000000600052601160045260246000fd5b7f4e487b7100000000000000000000000000000000000000000000000000000000600052601260045260246000fd5b600080fd5b6109e3816108e6565b81146109ee57600080fd5b5056fea264697066735822122085f7bfff8b3771834c9ab25c8a019fdd85680259ffc211a4a879e0ef44489c4564736f6c63430008070033","opcodes":"PUSH1 0x80 PUSH1 0x40 MSTORE CALLVALUE DUP1 ISZERO PUSH2 0x10 JUMPI PUSH1 0x0 DUP1 REVERT JUMPDEST POP PUSH2 0xA27 DUP1 PUSH2 0x20 PUSH1 0x0 CODECOPY PUSH1 0x0 RETURN INVALID PUSH1 0x80 PUSH1 0x40 MSTORE PUSH1 0x4 CALLDATASIZE LT PUSH2 0x70 JUMPI PUSH1 0x0 CALLDATALOAD PUSH1 0xE0 SHR DUP1 PUSH4 0xCD5E3C5D GT PUSH2 0x4E JUMPI DUP1 PUSH4 0xCD5E3C5D EQ PUSH2 0xF4 JUMPI DUP1 PUSH4 0xD504CB65 EQ PUSH2 0xFE JUMPI DUP1 PUSH4 0xD826F88F EQ PUSH2 0x129 JUMPI DUP1 PUSH4 0xEAF10D35 EQ PUSH2 0x140 JUMPI PUSH2 0x70 JUMP JUMPDEST DUP1 PUSH4 0x8878E37 EQ PUSH2 0x75 JUMPI DUP1 PUSH4 0x1AE651C8 EQ PUSH2 0x9E JUMPI DUP1 PUSH4 0x4DD8DB5C EQ PUSH2 0xC9 JUMPI JUMPDEST PUSH1 0x0 DUP1 REVERT JUMPDEST CALLVALUE DUP1 ISZERO PUSH2 0x81 JUMPI PUSH1 0x0 DUP1 REVERT JUMPDEST POP PUSH2 0x9C PUSH1 0x4 DUP1 CALLDATASIZE SUB DUP2 ADD SWAP1 PUSH2 0x97 SWAP2 SWAP1 PUSH2 0x7A5 JUMP JUMPDEST PUSH2 0x16B JUMP JUMPDEST STOP JUMPDEST CALLVALUE DUP1 ISZERO PUSH2 0xAA JUMPI PUSH1 0x0 DUP1 REVERT JUMPDEST POP PUSH2 0xB3 PUSH2 0x281 JUMP JUMPDEST PUSH1 0x40 MLOAD PUSH2 0xC0 SWAP2 SWAP1 PUSH2 0x844 JUMP JUMPDEST PUSH1 0x40 MLOAD DUP1 SWAP2 SUB SWAP1 RETURN JUMPDEST CALLVALUE DUP1 ISZERO PUSH2 0xD5 JUMPI PUSH1 0x0 DUP1 REVERT JUMPDEST POP PUSH2 0xDE PUSH2 0x2D7 JUMP JUMPDEST PUSH1 0x40 MLOAD PUSH2 0xEB SWAP2 SWAP1 PUSH2 0x844 JUMP JUMPDEST PUSH1 0x40 MLOAD DUP1 SWAP2 SUB SWAP1 RETURN JUMPDEST PUSH2 0xFC PUSH2 0x32D JUMP JUMPDEST STOP JUMPDEST CALLVALUE DUP1 ISZERO PUSH2 0x10A JUMPI PUSH1 0x0 DUP1 REVERT JUMPDEST POP PUSH2 0x113 PUSH2 0x64B JUMP JUMPDEST PUSH1 0x40 MLOAD PUSH2 0x120 SWAP2 SWAP1 PUSH2 0x85F JUMP JUMPDEST PUSH1 0x40 MLOAD DUP1 SWAP2 SUB SWAP1 RETURN JUMPDEST CALLVALUE DUP1 ISZERO PUSH2 0x135 JUMPI PUSH1 0x0 DUP1 REVERT JUMPDEST POP PUSH2 0x13E PUSH2 0x6A4 JUMP JUMPDEST STOP JUMPDEST CALLVALUE DUP1 ISZERO PUSH2 0x14C JUMPI PUSH1 0x0 DUP1 REVERT JUMPDEST POP PUSH2 0x155 PUSH2 0x747 JUMP JUMPDEST PUSH1 0x40 MLOAD PUSH2 0x162 SWAP2 SWAP1 PUSH2 0x85F JUMP JUMPDEST PUSH1 0x40 MLOAD DUP1 SWAP2 SUB SWAP1 RETURN JUMPDEST PUSH1 0x0 ISZERO ISZERO PUSH1 0x0 DUP1 CALLER PUSH20 0xFFFFFFFFFFFFFFFFFFFFFFFFFFFFFFFFFFFFFFFF AND PUSH20 0xFFFFFFFFFFFFFFFFFFFFFFFFFFFFFFFFFFFFFFFF AND DUP2 MSTORE PUSH1 0x20 ADD SWAP1 DUP2 MSTORE PUSH1 0x20 ADD PUSH1 0x0 KECCAK256 PUSH1 0x0 ADD PUSH1 0x1 SWAP1 SLOAD SWAP1 PUSH2 0x100 EXP SWAP1 DIV PUSH1 0xFF AND ISZERO ISZERO EQ PUSH2 0x1CA JUMPI PUSH1 0x0 DUP1 REVERT JUMPDEST PUSH1 0x1 PUSH1 0x0 DUP1 CALLER PUSH20 0xFFFFFFFFFFFFFFFFFFFFFFFFFFFFFFFFFFFFFFFF AND PUSH20 0xFFFFFFFFFFFFFFFFFFFFFFFFFFFFFFFFFFFFFFFF AND DUP2 MSTORE PUSH1 0x20 ADD SWAP1 DUP2 MSTORE PUSH1 0x20 ADD PUSH1 0x0 KECCAK256 PUSH1 0x0 ADD PUSH1 0x1 PUSH2 0x100 EXP DUP2 SLOAD DUP2 PUSH1 0xFF MUL NOT AND SWAP1 DUP4 ISZERO ISZERO MUL OR SWAP1 SSTORE POP DUP1 PUSH1 0x0 DUP1 CALLER PUSH20 0xFFFFFFFFFFFFFFFFFFFFFFFFFFFFFFFFFFFFFFFF AND PUSH20 0xFFFFFFFFFFFFFFFFFFFFFFFFFFFFFFFFFFFFFFFF AND DUP2 MSTORE PUSH1 0x20 ADD SWAP1 DUP2 MSTORE PUSH1 0x20 ADD PUSH1 0x0 KECCAK256 PUSH1 0x0 ADD PUSH1 0x0 PUSH2 0x100 EXP DUP2 SLOAD DUP2 PUSH1 0xFF MUL NOT AND SWAP1 DUP4 PUSH1 0xFF AND MUL OR SWAP1 SSTORE POP POP JUMP JUMPDEST PUSH1 0x0 DUP1 PUSH1 0x0 CALLER PUSH20 0xFFFFFFFFFFFFFFFFFFFFFFFFFFFFFFFFFFFFFFFF AND PUSH20 0xFFFFFFFFFFFFFFFFFFFFFFFFFFFFFFFFFFFFFFFF AND DUP2 MSTORE PUSH1 0x20 ADD SWAP1 DUP2 MSTORE PUSH1 0x20 ADD PUSH1 0x0 KECCAK256 PUSH1 0x0 ADD PUSH1 0x1 SWAP1 SLOAD SWAP1 PUSH2 0x100 EXP SWAP1 DIV PUSH1 0xFF AND SWAP1 POP SWAP1 JUMP JUMPDEST PUSH1 0x0 DUP1 PUSH1 0x0 CALLER PUSH20 0xFFFFFFFFFFFFFFFFFFFFFFFFFFFFFFFFFFFFFFFF AND PUSH20 0xFFFFFFFFFFFFFFFFFFFFFFFFFFFFFFFFFFFFFFFF AND DUP2 MSTORE PUSH1 0x20 ADD SWAP1 DUP2 MSTORE PUSH1 0x20 ADD PUSH1 0x0 KECCAK256 PUSH1 0x2 ADD PUSH1 0x0 SWAP1 SLOAD SWAP1 PUSH2 0x100 EXP SWAP1 DIV PUSH1 0xFF AND SWAP1 POP SWAP1 JUMP JUMPDEST PUSH1 0x0 DUP1 CALLER PUSH20 0xFFFFFFFFFFFFFFFFFFFFFFFFFFFFFFFFFFFFFFFF AND PUSH20 0xFFFFFFFFFFFFFFFFFFFFFFFFFFFFFFFFFFFFFFFF AND DUP2 MSTORE PUSH1 0x20 ADD SWAP1 DUP2 MSTORE PUSH1 0x20 ADD PUSH1 0x0 KECCAK256 PUSH1 0x3 ADD PUSH1 0x0 DUP2 SLOAD DUP1 SWAP3 SWAP2 SWAP1 PUSH2 0x37F SWAP1 PUSH2 0x8F3 JUMP JUMPDEST SWAP2 SWAP1 POP SSTORE POP PUSH1 0x1 ISZERO ISZERO PUSH1 0x0 DUP1 CALLER PUSH20 0xFFFFFFFFFFFFFFFFFFFFFFFFFFFFFFFFFFFFFFFF AND PUSH20 0xFFFFFFFFFFFFFFFFFFFFFFFFFFFFFFFFFFFFFFFF AND DUP2 MSTORE PUSH1 0x20 ADD SWAP1 DUP2 MSTORE PUSH1 0x20 ADD PUSH1 0x0 KECCAK256 PUSH1 0x0 ADD PUSH1 0x1 SWAP1 SLOAD SWAP1 PUSH2 0x100 EXP SWAP1 DIV PUSH1 0xFF AND ISZERO ISZERO EQ PUSH2 0x3E3 JUMPI PUSH1 0x0 DUP1 REVERT JUMPDEST PUSH1 0x1 PUSH1 0x5 DIFFICULTY TIMESTAMP PUSH1 0x0 DUP1 CALLER PUSH20 0xFFFFFFFFFFFFFFFFFFFFFFFFFFFFFFFFFFFFFFFF AND PUSH20 0xFFFFFFFFFFFFFFFFFFFFFFFFFFFFFFFFFFFFFFFF AND DUP2 MSTORE PUSH1 0x20 ADD SWAP1 DUP2 MSTORE PUSH1 0x20 ADD PUSH1 0x0 KECCAK256 PUSH1 0x3 ADD SLOAD PUSH1 0x40 MLOAD PUSH1 0x20 ADD PUSH2 0x43D SWAP4 SWAP3 SWAP2 SWAP1 PUSH2 0x807 JUMP JUMPDEST PUSH1 0x40 MLOAD PUSH1 0x20 DUP2 DUP4 SUB SUB DUP2 MSTORE SWAP1 PUSH1 0x40 MSTORE DUP1 MLOAD SWAP1 PUSH1 0x20 ADD KECCAK256 PUSH1 0x0 SHR PUSH2 0x460 SWAP2 SWAP1 PUSH2 0x946 JUMP JUMPDEST PUSH2 0x46A SWAP2 SWAP1 PUSH2 0x87A JUMP JUMPDEST PUSH1 0x0 DUP1 CALLER PUSH20 0xFFFFFFFFFFFFFFFFFFFFFFFFFFFFFFFFFFFFFFFF AND PUSH20 0xFFFFFFFFFFFFFFFFFFFFFFFFFFFFFFFFFFFFFFFF AND DUP2 MSTORE PUSH1 0x20 ADD SWAP1 DUP2 MSTORE PUSH1 0x20 ADD PUSH1 0x0 KECCAK256 PUSH1 0x1 ADD DUP2 SWAP1 SSTORE POP PUSH1 0x0 DUP1 CALLER PUSH20 0xFFFFFFFFFFFFFFFFFFFFFFFFFFFFFFFFFFFFFFFF AND PUSH20 0xFFFFFFFFFFFFFFFFFFFFFFFFFFFFFFFFFFFFFFFF AND DUP2 MSTORE PUSH1 0x20 ADD SWAP1 DUP2 MSTORE PUSH1 0x20 ADD PUSH1 0x0 KECCAK256 PUSH1 0x0 ADD PUSH1 0x0 SWAP1 SLOAD SWAP1 PUSH2 0x100 EXP SWAP1 DIV PUSH1 0xFF AND PUSH1 0xFF AND PUSH1 0x0 DUP1 CALLER PUSH20 0xFFFFFFFFFFFFFFFFFFFFFFFFFFFFFFFFFFFFFFFF AND PUSH20 0xFFFFFFFFFFFFFFFFFFFFFFFFFFFFFFFFFFFFFFFF AND DUP2 MSTORE PUSH1 0x20 ADD SWAP1 DUP2 MSTORE PUSH1 0x20 ADD PUSH1 0x0 KECCAK256 PUSH1 0x1 ADD SLOAD EQ ISZERO PUSH2 0x5A4 JUMPI PUSH1 0x1 PUSH1 0x0 DUP1 CALLER PUSH20 0xFFFFFFFFFFFFFFFFFFFFFFFFFFFFFFFFFFFFFFFF AND PUSH20 0xFFFFFFFFFFFFFFFFFFFFFFFFFFFFFFFFFFFFFFFF AND DUP2 MSTORE PUSH1 0x20 ADD SWAP1 DUP2 MSTORE PUSH1 0x20 ADD PUSH1 0x0 KECCAK256 PUSH1 0x2 ADD PUSH1 0x0 PUSH2 0x100 EXP DUP2 SLOAD DUP2 PUSH1 0xFF MUL NOT AND SWAP1 DUP4 ISZERO ISZERO MUL OR SWAP1 SSTORE POP JUMPDEST PUSH1 0x3 PUSH1 0x0 DUP1 CALLER PUSH20 0xFFFFFFFFFFFFFFFFFFFFFFFFFFFFFFFFFFFFFFFF AND PUSH20 0xFFFFFFFFFFFFFFFFFFFFFFFFFFFFFFFFFFFFFFFF AND DUP2 MSTORE PUSH1 0x20 ADD SWAP1 DUP2 MSTORE PUSH1 0x20 ADD PUSH1 0x0 KECCAK256 PUSH1 0x3 ADD SLOAD EQ ISZERO PUSH2 0x649 JUMPI PUSH1 0x0 DUP1 PUSH1 0x0 CALLER PUSH20 0xFFFFFFFFFFFFFFFFFFFFFFFFFFFFFFFFFFFFFFFF AND PUSH20 0xFFFFFFFFFFFFFFFFFFFFFFFFFFFFFFFFFFFFFFFF AND DUP2 MSTORE PUSH1 0x20 ADD SWAP1 DUP2 MSTORE PUSH1 0x20 ADD PUSH1 0x0 KECCAK256 PUSH1 0x0 ADD PUSH1 0x1 PUSH2 0x100 EXP DUP2 SLOAD DUP2 PUSH1 0xFF MUL NOT AND SWAP1 DUP4 ISZERO ISZERO MUL OR SWAP1 SSTORE POP JUMPDEST JUMP JUMPDEST PUSH1 0x0 DUP1 PUSH1 0x0 CALLER PUSH20 0xFFFFFFFFFFFFFFFFFFFFFFFFFFFFFFFFFFFFFFFF AND PUSH20 0xFFFFFFFFFFFFFFFFFFFFFFFFFFFFFFFFFFFFFFFF AND DUP2 MSTORE PUSH1 0x20 ADD SWAP1 DUP2 MSTORE PUSH1 0x20 ADD PUSH1 0x0 KECCAK256 PUSH1 0x0 ADD PUSH1 0x0 SWAP1 SLOAD SWAP1 PUSH2 0x100 EXP SWAP1 DIV PUSH1 0xFF AND PUSH1 0xFF AND SWAP1 POP SWAP1 JUMP JUMPDEST PUSH1 0x0 DUP1 PUSH1 0x0 CALLER PUSH20 0xFFFFFFFFFFFFFFFFFFFFFFFFFFFFFFFFFFFFFFFF AND PUSH20 0xFFFFFFFFFFFFFFFFFFFFFFFFFFFFFFFFFFFFFFFF AND DUP2 MSTORE PUSH1 0x20 ADD SWAP1 DUP2 MSTORE PUSH1 0x20 ADD PUSH1 0x0 KECCAK256 PUSH1 0x3 ADD DUP2 SWAP1 SSTORE POP PUSH1 0x0 DUP1 PUSH1 0x0 CALLER PUSH20 0xFFFFFFFFFFFFFFFFFFFFFFFFFFFFFFFFFFFFFFFF AND PUSH20 0xFFFFFFFFFFFFFFFFFFFFFFFFFFFFFFFFFFFFFFFF AND DUP2 MSTORE PUSH1 0x20 ADD SWAP1 DUP2 MSTORE PUSH1 0x20 ADD PUSH1 0x0 KECCAK256 PUSH1 0x0 ADD PUSH1 0x1 PUSH2 0x100 EXP DUP2 SLOAD DUP2 PUSH1 0xFF MUL NOT AND SWAP1 DUP4 ISZERO ISZERO MUL OR SWAP1 SSTORE POP JUMP JUMPDEST PUSH1 0x0 DUP1 PUSH1 0x0 CALLER PUSH20 0xFFFFFFFFFFFFFFFFFFFFFFFFFFFFFFFFFFFFFFFF AND PUSH20 0xFFFFFFFFFFFFFFFFFFFFFFFFFFFFFFFFFFFFFFFF AND DUP2 MSTORE PUSH1 0x20 ADD SWAP1 DUP2 MSTORE PUSH1 0x20 ADD PUSH1 0x0 KECCAK256 PUSH1 0x1 ADD SLOAD SWAP1 POP SWAP1 JUMP JUMPDEST PUSH1 0x0 DUP2 CALLDATALOAD SWAP1 POP PUSH2 0x79F DUP2 PUSH2 0x9DA JUMP JUMPDEST SWAP3 SWAP2 POP POP JUMP JUMPDEST PUSH1 0x0 PUSH1 0x20 DUP3 DUP5 SUB SLT ISZERO PUSH2 0x7BB JUMPI PUSH2 0x7BA PUSH2 0x9D5 JUMP JUMPDEST JUMPDEST PUSH1 0x0 PUSH2 0x7C9 DUP5 DUP3 DUP6 ADD PUSH2 0x790 JUMP JUMPDEST SWAP2 POP POP SWAP3 SWAP2 POP POP JUMP JUMPDEST PUSH2 0x7DB DUP2 PUSH2 0x8D0 JUMP JUMPDEST DUP3 MSTORE POP POP JUMP JUMPDEST PUSH2 0x7EA DUP2 PUSH2 0x8DC JUMP JUMPDEST DUP3 MSTORE POP POP JUMP JUMPDEST PUSH2 0x801 PUSH2 0x7FC DUP3 PUSH2 0x8DC JUMP JUMPDEST PUSH2 0x93C JUMP JUMPDEST DUP3 MSTORE POP POP JUMP JUMPDEST PUSH1 0x0 PUSH2 0x813 DUP3 DUP7 PUSH2 0x7F0 JUMP JUMPDEST PUSH1 0x20 DUP3 ADD SWAP2 POP PUSH2 0x823 DUP3 DUP6 PUSH2 0x7F0 JUMP JUMPDEST PUSH1 0x20 DUP3 ADD SWAP2 POP PUSH2 0x833 DUP3 DUP5 PUSH2 0x7F0 JUMP JUMPDEST PUSH1 0x20 DUP3 ADD SWAP2 POP DUP2 SWAP1 POP SWAP5 SWAP4 POP POP POP POP JUMP JUMPDEST PUSH1 0x0 PUSH1 0x20 DUP3 ADD SWAP1 POP PUSH2 0x859 PUSH1 0x0 DUP4 ADD DUP5 PUSH2 0x7D2 JUMP JUMPDEST SWAP3 SWAP2 POP POP JUMP JUMPDEST PUSH1 0x0 PUSH1 0x20 DUP3 ADD SWAP1 POP PUSH2 0x874 PUSH1 0x0 DUP4 ADD DUP5 PUSH2 0x7E1 JUMP JUMPDEST SWAP3 SWAP2 POP POP JUMP JUMPDEST PUSH1 0x0 PUSH2 0x885 DUP3 PUSH2 0x8DC JUMP JUMPDEST SWAP2 POP PUSH2 0x890 DUP4 PUSH2 0x8DC JUMP JUMPDEST SWAP3 POP DUP3 PUSH32 0xFFFFFFFFFFFFFFFFFFFFFFFFFFFFFFFFFFFFFFFFFFFFFFFFFFFFFFFFFFFFFFFF SUB DUP3 GT ISZERO PUSH2 0x8C5 JUMPI PUSH2 0x8C4 PUSH2 0x977 JUMP JUMPDEST JUMPDEST DUP3 DUP3 ADD SWAP1 POP SWAP3 SWAP2 POP POP JUMP JUMPDEST PUSH1 0x0 DUP2 ISZERO ISZERO SWAP1 POP SWAP2 SWAP1 POP JUMP JUMPDEST PUSH1 0x0 DUP2 SWAP1 POP SWAP2 SWAP1 POP JUMP JUMPDEST PUSH1 0x0 PUSH1 0xFF DUP3 AND SWAP1 POP SWAP2 SWAP1 POP JUMP JUMPDEST PUSH1 0x0 PUSH2 0x8FE DUP3 PUSH2 0x8DC JUMP JUMPDEST SWAP2 POP PUSH32 0xFFFFFFFFFFFFFFFFFFFFFFFFFFFFFFFFFFFFFFFFFFFFFFFFFFFFFFFFFFFFFFFF DUP3 EQ ISZERO PUSH2 0x931 JUMPI PUSH2 0x930 PUSH2 0x977 JUMP JUMPDEST JUMPDEST PUSH1 0x1 DUP3 ADD SWAP1 POP SWAP2 SWAP1 POP JUMP JUMPDEST PUSH1 0x0 DUP2 SWAP1 POP SWAP2 SWAP1 POP JUMP JUMPDEST PUSH1 0x0 PUSH2 0x951 DUP3 PUSH2 0x8DC JUMP JUMPDEST SWAP2 POP PUSH2 0x95C DUP4 PUSH2 0x8DC JUMP JUMPDEST SWAP3 POP DUP3 PUSH2 0x96C JUMPI PUSH2 0x96B PUSH2 0x9A6 JUMP JUMPDEST JUMPDEST DUP3 DUP3 MOD SWAP1 POP SWAP3 SWAP2 POP POP JUMP JUMPDEST PUSH32 0x4E487B7100000000000000000000000000000000000000000000000000000000 PUSH1 0x0 MSTORE PUSH1 0x11 PUSH1 0x4 MSTORE PUSH1 0x24 PUSH1 0x0 REVERT JUMPDEST PUSH32 0x4E487B7100000000000000000000000000000000000000000000000000000000 PUSH1 0x0 MSTORE PUSH1 0x12 PUSH1 0x4 MSTORE PUSH1 0x24 PUSH1 0x0 REVERT JUMPDEST PUSH1 0x0 DUP1 REVERT JUMPDEST PUSH2 0x9E3 DUP2 PUSH2 0x8E6 JUMP JUMPDEST DUP2 EQ PUSH2 0x9EE JUMPI PUSH1 0x0 DUP1 REVERT JUMPDEST POP JUMP INVALID LOG2 PUSH5 0x6970667358 0x22 SLT KECCAK256 DUP6 0xF7 0xBF SELFDESTRUCT DUP12 CALLDATACOPY PUSH18 0x834C9AB25C8A019FDD85680259FFC211A4A8 PUSH26 0xE0EF44489C4564736F6C63430008070033000000000000000000 "},"gasEstimates":{"creation":{"codeDepositCost":"519800","executionCost":"556","totalCost":"520356"},"external":{"WONorNOT()":"2619","currentBet()":"2596","destiny()":"2598","getNewbet(uint8)":"51503","isBetSet()":"2647","reset()":"29709","roll()":"infinite"}},"methodIdentifiers":{"WONorNOT()":"4dd8db5c","currentBet()":"d504cb65","destiny()":"eaf10d35","getNewbet(uint8)":"08878e37","isBetSet()":"1ae651c8","reset()":"d826f88f","roll()":"cd5e3c5d"}},"storageLayout":{"storage":[{"astId":17,"contract":"DiceGame.sol:Dice","label":"bets","offset":0,"slot":"0","type":"t_mapping(t_address,t_struct(Bet)12_storage)"}],"types":{"t_address":{"encoding":"inplace","label":"address","numberOfBytes":"20"},"t_bool":{"encoding":"inplace","label":"bool","numberOfBytes":"1"},"t_mapping(t_address,t_struct(Bet)12_storage)":{"encoding":"mapping","key":"t_address","label":"mapping(address => struct Dice.Bet)","numberOfBytes":"32","value":"t_struct(Bet)12_storage"},"t_struct(Bet)12_storage":{"encoding":"inplace","label":"struct Dice.Bet","members":[{"astId":3,"contract":"DiceGame.sol:Dice","label":"currentBet","offset":0,"slot":"0","type":"t_uint8"},{"astId":5,"contract":"DiceGame.sol:Dice","label":"isBetSet","offset":1,"slot":"0","type":"t_bool"},{"astId":7,"contract":"DiceGame.sol:Dice","label":"destiny","offset":0,"slot":"1","type":"t_uint256"},{"astId":9,"contract":"DiceGame.sol:Dice","label":"matchFound","offset":0,"slot":"2","type":"t_bool"},{"astId":11,"contract":"DiceGame.sol:Dice","label":"count","offset":0,"slot":"3","type":"t_uint256"}],"numberOfBytes":"128"},"t_uint256":{"encoding":"inplace","label":"uint256","numberOfBytes":"32"},"t_uint8":{"encoding":"inplace","label":"uint8","numberOfBytes":"1"}}},"userdoc":{"kind":"user","methods":{},"version":1}}